:020000040800F2
:1000000000300020357400087D7400087D740008FD
:100010007D7400087D7400087D74000800000000F5
:100020000000000000000000000000007D740008D7
:100030007D740008000000007D7400087D740008D5
:1000400000000000000000000000000000000000B0
:1000500000000000000000000000000000000000A0
:100060000000000000000000000000000000000090
:100070000000000000000000000000000000000080
:100080000000000000000000000000000000000070
:100090000000000000000000000000000000000060
:1000A0000000000000000000000000000000000050
:1000B0000000000000000000000000000000000040
:1000C0000000000000000000000000000000000030
:1000D0000000000000000000000000000000000020
:1000E0000000000000000000000000000000000010
:1000F0000000000000000000000000000000000000
:1001000000000000000000000000000000000000EF
:1001100000000000000000000000000000000000DF
:1001200000000000000000000000000000000000CF
:1001300000000000000000000000000000000000BF
:1001400000000000000000000000000000000000AF
:10015000000000000000000000000000000000009F
:10016000000000000000000000000000000000008F
:10017000000000000000000000000000000000007F
:08018000000000000000000077
:100190000348044B834202D0034B03B11847704716
:1001A00064000020640000200000000005480649AB
:1001B000091A891001EBD171491002D0034B03B128
:1001C0001847704764000020640000200000000011
:1001D00010B5064C237843B9FFF7DAFF044B13B18F
:1001E0000448AFF300800123237010BD6400002099
:1001F000000000008074000808B5044B1BB10449DE
:100200000448AFF30080BDE80840CFE700000000DD
:1002100068000020807400082DE9F04F82B043F0A0
:10022000010380EA030420F47F4024F47F444FEA72
:10023000733320F0FE0024F0FE0423F0802301F14C
:100240001C0ECDF800E0CD69D66900FB05F700FB78
:1002500006F8E4FB067AE4FB058ABFB21FFA88F8C9
:10026000A3FB079A4FEA3343A3FB08BE4FEA33438D
:100270004FEA35454FEA364600FB05F700FB06F826
:10028000E4FB0676E4FB05854FEA07474FEA08489A
:10029000E3FB079A4FEA3343E3FB08BE4FEA3343DD
:1002A00029F000452BF00046D561CE614FEAD9799F
:1002B0004FEADB7B49EA4A094BEA4E0B4FF0130544
:1002C000A9FB059AABFB05BE01910D68166800FB02
:1002D00005F700FB06F8E4FB0671E4FB0581BFB2FD
:1002E0001FFA88F8E3FB079A4FEA3343E3FB08BEA3
:1002F0004FEA33434FEA35454FEA364600FB05F7F0
:1003000000FB06F8E4FB0676E4FB05854FEA0747A9
:100310004FEA0848E3FB079A4FEA3343E3FB08BE82
:100320004FEA3343C2F800900199C1F800B0D146BA
:10033000F3464FF0000A4FF0000E01F1040102F104
:100340000402009DA942BFD115680E684D445E4469
:1003500015600E60BDE8F38F2DE9F75F13685468F0
:100360009568D66817690A6888EA0808A8FB089A99
:100370008BEA0B0BA2FB03CEE2FB04E8E2FB058950
:10038000E2FB069AC0F800C08CEA0C0CE2FB07AB5B
:100390004A68E2FB03ECE2FB648CE2FB659CE2FB57
:1003A00066ACC0F804E08EEA0E0EE2FB67BC8A6819
:1003B000E2FB038EE2FB649EE2FB65AEE2FB66BEFF
:1003C000C0F8088088EA0808E2FB67CECA68E2FB4A
:1003D0000398E2FB648AE2FB65ABE2FB66BCC0F813
:1003E0000C9089EA0909E2FB67CE0A69E2FB0389FE
:1003F000E2FB649AE2FB65ABE2FB66BCC0F81080EE
:1004000088EA0808E2FB67CE4A69E2FB0398E2FB50
:10041000648A029A536994690D6886EA0606E5FBC8
:100420000396E5FB6468C0F8149087EA0707D2F8E2
:100430001C90E5FB698A4D68E5FB0367E5FB647882
:10044000E5FB698A8D68E5FB637BE5FB648BE5FB77
:1004500069ABCD68E5FB638CE5FB64ACE5FB69BC8F
:100460000D69E5FB63AEE5FB64BEE5FB69CE8D6916
:100470001368546889EA0909E5FB0369E5FB6479B7
:1004800086619668E5FB66894D6982EA0202E5FBB2
:100490000672CD6981EA0101E5FB0371C761E5FBE5
:1004A0006412E5FB6629019B5C699E69029BDF681B
:1004B000E4FB67180162E6FB6728E5FB67891969B9
:1004C000E4FB612AE6FB618AE5FB619A5969E4FB7A
:1004D000618BE6FB619BE5FB61AB9969E4FB619C89
:1004E000E6FB61ACE5FB61BCD969E4FB61AEE6FB10
:1004F00061BEE5FB61CE4262C0F82880C0F82C9056
:10050000C0F830A0C0F834B0C0F838C0C0F83CE043
:1005100003B0BDE8F09F00BF2DE9F75F88B0106819
:1005200053689468D56816690F68A7FB0389A7FB11
:1005300000ABCDF800A08AEA0A0AAAFB0ACEE7FBC4
:10054000049AE7FB05ACE7FB06CE4F68E7FB608B40
:10055000E7FB639BE7FB64ABE7FB65BCCDF804807E
:1005600088EA0808E7FB66CE8F68E7FB0098E7FBA0
:10057000638AE7FB64ABE7FB65BCCDF8089089EACA
:100580000909E7FB66CECF68E7FB0089E7FB639AC2
:10059000E7FB64ABE7FB65BCCDF80C8088EA080894
:1005A000E7FB66CE0F69E7FB0098E7FB638AE7FB92
:1005B00064ABE7FB65BCCDF8109089EA0909E7FB5D
:1005C00066CE4A69E2FB0089E2FB639AE2FB64AB18
:1005D0008A6987EA0707E2FB0097E2FB637AE2FB9E
:1005E00064ABCA69E2FB63ACE2FB64BC0A98436992
:1005F00084690D6886EA0606E5FB0386E5FB646907
:10060000CDF81480D0F81C80E5FB68794D6882EA4B
:100610000202E5FB03620696E5FB6427E5FB6879C9
:100620008D6886EA0606E5FB0326E5FB6467E5FBC5
:100630006879CD68E5FB636AE5FB647AE5FB689A57
:100640000D69E5FB637BE5FB649BE5FB68ABCD696E
:10065000036884EA0404E5FB032407928A694B6972
:10066000C168E3FB6146E2FB6167E5FB6179016913
:10067000E3FB616EE2FB617CE5FB619A4169E3FBB0
:10068000617EE2FB619CE5FB61AB8169E3FB619EFE
:10069000E2FB61ACE5FB61BCE3FB68AEE2FB68BE7C
:1006A000E5FB68CE07980099019A4FF0260385EA8A
:1006B0000505EEFB03054FF013084FEAD07E0EFB55
:1006C00008F84FEA40004FEA5000E4FB631884EA60
:1006D0000404E5FB03142244E6FB6328029C039D0B
:1006E000049EDDF814E0E7FB6348E9FB6358EAFB8E
:1006F0006368EBFB638E069FDDF82090ECFB637E66
:100700007044C9F81C00C9F81870C9F81480C9F8F9
:100710001060C9F80C50C9F80840C9F80420C9F89D
:1007200000100BB0BDE8F09FF0B5CA6B130C92B28D
:1007300026277A437B43CC691D0C1B040026A41892
:100740007541E418754162005208C261E40F6D0002
:100750002C43132262430C681219002373410C6A64
:10076000250CA4B27D437C43121973412C042D0C3B
:1007700012196B4102604C681B19002272414C6ACD
:10078000250CA4B27D437C431B1972412C042D0C13
:100790001B196A4143608C681219002373418C6AEB
:1007A000250CA4B27D437C43121973412C042D0CFB
:1007B00012196B418260CC681B1900227241CC6A0D
:1007C000250CA4B27D437C431B1972412C042D0CD3
:1007D0001B196A41C3600C691219002373410C6B29
:1007E000250CA4B27D437C43121973412C042D0CBB
:1007F00012196B4102614C691B19002272414C6B4A
:10080000250CA4B27D437C431B1972412C042D0C92
:100810001B196A4143618C691219002373418C6B67
:10082000250CA4B27D437C43121973412C042D0C7A
:1008300012196B418261C469E418C461F0BD00BF44
:100840002DE9F15F85B008684A688B68CC680D694E
:100850004E69A0FB0278A0FB009AE0FB627AE2FB03
:10086000628ACDF800900197A0FB0479A0FB03BC3D
:100870001BEB0B0B8EEA0E0EE8FB6E8BEAFB6EABEE
:10088000CDF80880E2FB637C7F41E7FB6E7A03973B
:10089000DA448F69D1F81C80A0FB061BE0FB659C45
:1008A000E2FB651CE0FB67BCE2FB049EE3FB641E0D
:1008B000E2FB66BEE0FB68CE59EB0909494180EADC
:1008C0000000E3FB639ACDF81090E1FB601AE3FBB4
:1008D00005B0E2FB670CE2FB68CE5BEB0B0BE4FBC5
:1008E00064AB82EA0202E3FB0602E3FB672CE3FB54
:1008F00068CE83EA0303E4FB0503E4FB6623E4FB21
:10090000673CE4FB68CE404189EA0909E0FB690BDA
:100910005241E5FB0639E5FB679CE5FB68CE84EABE
:100920000404E6FB07C4E6FB684EE5FB652B85EA9D
:1009300005055B41E3FB653BE7FB08E559EB09096E
:100940005CEB0C0C64415EEB0E0E6D41E6FB669BAE
:1009500086EA0606EBFB66BCE7FB674CECFB66CE63
:10096000E8FB685E5EEB060E4FF02607EEFB07061F
:100970004FF013084FEAD07E0EFB08F84FEA400014
:100980004FEA5000DDF800E0E2FB678E82EA0202E7
:10099000E6FB07827244059EDDF804E0C6F800809D
:1009A000E3FB672E7260029A039BDDF81080E9FB7F
:1009B000672EB260EBFB673EF360E4FB678EC6F820
:1009C0001080ECFB671E7161E5FB67AEC6F818A0EE
:1009D0007044F06106B0BDE8F09F00BF014B18689D
:1009E000704700BF0000002070B50D4E0D4D761B06
:1009F000B61006D00024013455F8043B9847A642AF
:100A0000F9D1094E094D761B06F03AFDB61006D015
:100A10000024013455F8043B9847A642F9D170BD33
:100A2000B4790008B4790008B8790008B4790008EE
:100A3000844641EA000313F003036DD1403A41D3E9
:100A400051F8043B40F8043B51F8043B40F8043BA8
:100A500051F8043B40F8043B51F8043B40F8043B98
:100A600051F8043B40F8043B51F8043B40F8043B88
:100A700051F8043B40F8043B51F8043B40F8043B78
:100A800051F8043B40F8043B51F8043B40F8043B68
:100A900051F8043B40F8043B51F8043B40F8043B58
:100AA00051F8043B40F8043B51F8043B40F8043B48
:100AB00051F8043B40F8043B51F8043B40F8043B38
:100AC000403ABDD2303211D351F8043B40F8043BD8
:100AD00051F8043B40F8043B51F8043B40F8043B18
:100AE00051F8043B40F8043B103AEDD20C3205D3E8
:100AF00051F8043B40F8043B043AF9D2043208D0E0
:100B0000D2071CBF11F8013B00F8013B01D30B8851
:100B100003806046704700BF082A13D38B078DD02F
:100B200010F003038AD0C3F10403D21ADB071CBF01
:100B300011F8013B00F8013B80D331F8023B20F86B
:100B4000023B7BE7043AD9D3013A11F8013B00F8A4
:100B5000013BF9D20B7803704B7843708B7883702C
:100B600060467047F0B4860746D0541E002A3CD039
:100B7000CAB2034602E014F1FF3436D303F8012B66
:100B80009D07F8D1032C29D9CDB245EA05250F2CB4
:100B900045EA054533D9A4F11006360903F12007CB
:100BA00007EB061703F1100242E9045542E902552A
:100BB0001032BA42F8D1721C14F00C0F03EB02127F
:100BC00004F00F0613D0331F23F003030433134440
:100BD00042F8045B9342FBD106F003042CB1C9B286
:100BE0001C4403F8011B9C42FBD1F0BC7047344607
:100BF0001346002CF3D1F8E714460346C2E71A4621
:100C00002646E0E738B5124B1C68A26B05461AB1C0
:100C10000023C2E9045338BD182000F021F9024630
:100C2000A06378B1012000210A4B1360C2E90401DE
:100C30000B230948094993810023C2E90101C2E954
:100C4000045338BD064B0748422100F0AFF800BFFF
:100C5000000000200E33CDAB34126DE6ECDE050053
:100C6000EC7800080479000838B51A4B1C68A26BB0
:100C700092B1146918495369184801FB04F100FB4B
:100C80000313A4FB0045611C1D4445F1000323F040
:100C90000040C2E9041338BD182000F0E1F8024614
:100CA000A06388B101200021C2E904010A480C4C6C
:100CB0000C4B0D490D4D146053600B240346956099
:100CC0009481C2E9041338BD094B0A484E2100F053
:100CD0006DF800BF000000202DF451582D7F954C79
:100CE0000E33CDAB34126DE62E7F954CECDE050055
:100CF000EC780008047900080CB470B59CB020AC06
:100D00000B4E54F8042B0291234606916FF00045D8
:100D100002A901940795CDE9045600F047FA029B19
:100D200000221A701CB0BDE8704002B0704700BFCE
:100D30000802FFFF0EB430B59CB01FAB0C4C0D4D3C
:100D400053F8042B0193014602910691206802A9F1
:100D50006FF000440794CDE9044500F027FA029BA8
:100D600000221A701CB0BDE8304003B0704700BFCD
:100D7000000000200802FFFF10B50B4B84B00446B2
:100D800000221868694600F057F8002806DBDDE904
:100D900000010CB1C4E9000104B010BD4FF0FF30F8
:100DA0004FF0FF31F5E700BF0000002000B50A4C0E
:100DB0002668054685B01C46F06852B1074B009185
:100DC000CDE9013206492B46224600F021F800F019
:100DD000ABFF044B1A46F2E7000000203879000808
:100DE000487900084479000808B513460022FFF747
:100DF000DDFF00BF0CB400B583B004AB53F8042B87
:100E0000019300F04FFB03B05DF804EB02B07047B4
:100E10000EB410B583B005AB064C53F8042B019308
:100E20000146206800F03EFB03B0BDE8104003B06F
:100E3000704700BF0000002038B50B46074C054640
:100E4000114618460023236001F024FE431C00D005
:100E500038BD2368002BFBD02B6038BD0802002072
:100E6000024B0146186800F061B800BF0000002086
:100E7000024B0146186800F003B800BF00000020D4
:100E800000293CD038B551F8043C0C1F002BB8BFEA
:100E9000E418054601F034FC234B1A682AB1A2423B
:100EA0000DD921686018824223D0626028461C60F8
:100EB000BDE8384001F026BCA34203D81A46536867
:100EC000002BF9D111685018A04219D024D82168FC
:100ED0006018834206D0636054602846BDE83840FD
:100EE00001F010BCD3E90003014463602160546049
:100EF000F3E7D2E90002014462602160D6E770475F
:100F000020680144501883421160E6D1D3E9000300
:100F1000014453601160E0E70C232B602846BDE8D4
:100F2000384001F0EFBB00BF90010020F8B5CD1CA8
:100F300025F0030508350C2D38BF0C25002D06467D
:100F400033DBA94231D82A4F01F0DAFB3A6852B1BB
:100F500013685B1B04D43FE023685B1B29D5224642
:100F60005468002CF8D1796800293BD029463046D6
:100F700000F0E8FD431C28D0C41C24F00304A04268
:100F800005D0211A304600F0DDFD01301DD025606E
:100F9000304601F0B7FB04F10B0020F00700231DE1
:100FA000C21A01D01B1AA350F8BD0C2232600020D7
:100FB000F8BD0B2B05D8A242636811D05360E7E758
:100FC000144623601C442560E2E70C23304633605E
:100FD00001F098FB0020F8BD0B2BF1D853681446A4
:100FE0003B60D5E7304600F0ADFD7860BEE700BF5E
:100FF000900100202DE9F0478E681D46AE420C4658
:101000000B68174636D88046888910F4906F0ED149
:10101000354618462A46394601F00AFBA26823687D
:10102000961B2B44A66023600020BDE8F087D1E921
:10103000041606EB4606A3EB010906EBD6766B1CFD
:1010400076104B44B342324684BF1E4632464305B7
:1010500012D511464046FFF769FF824600B34A4663
:101060002169FFF7E5FCA38923F4906343F0800333
:10107000A38106E02E46CCE7404601F045FB8246C0
:1010800050B1A6EB09020AEB09036661C4F810A08F
:101090002360A2602E46BCE721694046FFF7F0FEC0
:1010A0000C23C8F80030A38943F04003A3814FF01C
:1010B000FF30BAE72DE9F04F936883B09046002BDC
:1010C0006DD017688D6882460C460868083743E083
:1010D000A38913F4906F2ED0D4E9041505EB4505D0
:1010E000A0EB010B05EBD5750BEB06006D10013085
:1010F000A8422A4684BF05462A465B0536D51146D6
:101100005046FFF713FF00283AD05A462169019054
:10111000FFF78EFCA289019B22F4906242F08002CC
:10112000A281A5EB0B0203EB0B006561236120603C
:10113000A2603546B3465A46494601F079FAD8F8D6
:101140000830A2682068551B58449E1BA56020608B
:10115000C8F808601EB3083757E90296AB46002E60
:10116000F9D0AE42B4D23546B346E4E7504601F07A
:10117000CBFA03460028D4D121695046FFF780FE00
:101180000C23CAF80030A389002243F040034FF03B
:10119000FF30A381C8E9012203B0BDE8F08F002031
:1011A000C8F8040003B0BDE8F08F00BF2DE9F04F90
:1011B00090468A899FB014068B46029003D50A692F
:1011C000002A00F00B81059330238DF8323098F817
:1011D00000308E4E002120220B918DF83120012706
:1011E000002B00F08480252B00F0F680454603E0BC
:1011F000252B00F0868025466B786C1C002BF7D1E0
:10120000B4EB080A73D04246534659460298FFF79A
:10121000F1FE01306BD00B9B6A7853440B93002A8C
:1012200065D000234FF0FF3201340693CDE9083337
:101230008DF85B301C93079205E0069A07FA03F3DA
:1012400013432C4606932546052215F8011B30460C
:1012500001F09EF9AA46831B0028EED1069BD90611
:1012600044BF20228DF85B2021781A0744BF2B222F
:101270008DF85B202A2948D1059A1168043200298B
:1012800005927EDB09916178A51C2E2956D0604C11
:101290000322204601F07CF9002868D0001B069B41
:1012A000402404FA00F00343069305F1010829786D
:1012B00058488DF83010062201F06AF9002866D0EF
:1012C000554B002B56D005AB00935A46534B029812
:1012D00006A9AFF300808146B9F1FF3F07D00B9B11
:1012E0004B440B9398F80030002B7FF47CAFBBF895
:1012F0000C305B0654BF0B984FF0FF301FB0BDE8B9
:10130000F08FB4EB080A8CD07DE7A1F13002092AF6
:1013100088BFA246B9D8099B01E02C46013529783F
:1013200003EB830302EB4303A1F13002092AAA462F
:10133000F3D92E2904F102050993A8D19AF80110D6
:101340002A292ED1059B9AF802101A6807920433B5
:10135000002A05930AF103050AF1020337DB2C4C3E
:10136000032220469A4601F013F9002896D1A84698
:1013700055469CE7059B073323F007030833059385
:10138000ADE7494243F00203099106937BE705ABC1
:1013900000935A46214B029806A900F087FA81462D
:1013A0009AE7A1F130020023092A079301D923E02B
:1013B0005546697803EB830302EB4303A1F1300246
:1013C000092A05F1010AF3D9023507935FE74FF0C7
:1013D000FF329A4607925AE7444622E74021039398
:1013E000FFF7A4FD039BCBF80000CBF8100030B151
:1013F0004022CBF81420E6E6AA46013547E7029AD8
:101400000C2313604FF0FF3078E700BF78790008B5
:10141000807900088479000800000000F50F0008BA
:101420009368013B002B93600FDA10B49469A342D8
:1014300008DB0A2906D01368581C1060197008468A
:1014400010BC704710BC00F08FBB1368581C1060B4
:1014500019700846704700BF9BB1F8B513440F469A
:1014600006465D1E541E01E0AC4208D03A4614F810
:10147000011F3046FFF7D4FF431CF5D1F8BD002013
:10148000F8BD0020704700BF936810B5144613B92B
:101490005360184610BD00F02FFE0023C4E901334D
:1014A00010BD00BF2DE9F04F9FB08B4690461C4603
:1014B000039018B18369002B00F0B780A24B9B45C5
:1014C00000F0B980A14B9B4500F0C780A04B9B4525
:1014D00004BF039BD3F80CB0BBF80C30180740F1E5
:1014E000B280DBF81030002B00F0AD8030238DF897
:1014F000323098F800300594002120220B918DF8AD
:101500003120944E0127002B00F08780252B00F01E
:101510001581454603E0252B00F0A38025466B7816
:101520006C1C002BF7D1B4EB080A76D04246534628
:1015300059460398FFF790FF01306ED00B9B6A78F5
:1015400053440B93002A68D000234FF0FF3201343C
:101550000693CDE908338DF85B301C93079205E0C4
:10156000069A07FA03F313432C46069325460522F1
:1015700015F8011B304601F00BF8AA46831B002822
:10158000EED1069BD90644BF20228DF85B2021783E
:101590001A0744BF2B228DF85B202A2966D1059AB1
:1015A0001168043200290592C0F29D80099161788A
:1015B000A51C2E2973D0684C0322204600F0E8FFBA
:1015C000002800F08680001B069B402404FA00F0EF
:1015D0000343069305F10108297860488DF830101F
:1015E000062200F0D5FF002800F083805C4B002B22
:1015F00072D005AB00935A465A4B039806A9AFF335
:1016000000808146B9F1FF3F07D00B9B4B440B9301
:1016100098F80030002B7FF479AFBBF80C305B06F4
:1016200018D40B981FB0BDE8F08F00F045FD464B75
:101630009B457FF447AF039BD3F804B0BBF80C3055
:1016400018073FF54EAF5946039800F0EDFA002811
:101650003FF44CAF4FF0FF30E4E7039BD3F808B002
:101660003AE7B4EB080A3FF46FAF5FE7A1F130024D
:10167000092A88BFA2469CD8099B01E02C46013567
:10168000297803EB830302EB4303A1F13002092A1B
:10169000AA46F3D92E2904F1020509938BD19AF8B1
:1016A00001102A292FD1059B9AF802101A68079277
:1016B0000433002A05930AF103050AF1020338DB1B
:1016C000254C032220469A4600F062FF00287FF452
:1016D0007AAFA84655467FE7059B073323F00703FB
:1016E0000833059391E7494243F0020309910693B9
:1016F0005DE705AB00935A461A4B039806A900F024
:10170000D5F881467EE7A1F130020023092A07932C
:1017100001D915E05546697803EB830302EB4303D7
:10172000A1F13002092A05F1010AF3D90235079324
:1017300041E74FF0FF329A4607923CE7444603E701
:10174000AA46013537E700BFB87800089878000846
:101750007878000878790008807900088479000892
:10176000000000005914000810B4044C13460A4647
:101770000146206810BCFFF795BE00BF00000020A6
:101780002DE9F0470C4691460A698968DDF820800A
:101790008A42B8BF0A46C9F8002094F843100646AA
:1017A0001F4611B10132C9F80020236899065CD5A3
:1017B000D9F800200232C9F80020236813F0060F80
:1017C00019461DD1E1688A1A002AD8BF194617DDCB
:1017D00004F1190A002505E0E368D9F800209B1AF6
:1017E000AB420CDD0123524639463046C04701303A
:1017F00005F10105F0D14FF0FF30BDE8F087216819
:1018000094F84330003318BF01238A060AD5E11843
:101810005A1C302081F84300224494F8451082F885
:101820004310023304F1430239463046C0470130C9
:10183000E1D02368A268216903F00603042B1DD0C0
:101840008A4226DD4FF00009521A91441A340025CD
:1018500001E04D451DDA0123224639463046C04796
:10186000013005F10105F4D1C5E713F0060F13D0DF
:1018700094F84330003318BF0123D3E7D9F80000B0
:10188000E3688A42A3EB000323EAE379DCDC002B64
:10189000DCDC0020BDE8F087E168D9F800208A1A76
:1018A000002AD8BF194693DCAAE700BF2DE9F04310
:1018B0000C46097E85B06E29064617460C98984658
:1018C00004F1430E6DD039D9732900F0F68044D964
:1018D000752900F00481782940F01181782322686D
:1018E000DFF858C284F845300168150651F8043B0A
:1018F000016040F1A180D10744BF42F02002226084
:10190000002B00F093801022002184F843106068BF
:10191000A0600028C0F2C880216821F00401216085
:10192000002B40F0A380002840F0C0807546082AB4
:1019300000F0AC80AEEB0503236141E0632900F0C9
:10194000E5801AD8002938D0582940F0D88084F88A
:1019500045102268DFF8E8C1C6E76F2900F0BF80B4
:10196000702940F0CC802268DFF8D0C142F020021C
:101970007823226084F84530B6E7642902D06929CB
:1019800040F0BD8022680368110603F1040557D5B5
:10199000196805600B46002959DBDFF8A4C10A224B
:1019A000B5E70368226861691D1D056015061B689F
:1019B00002D4500600F1BD801960002375462361F2
:1019C000CDF800803B4603AA21463046FFF7D8FEFB
:1019D000013020D02A46236939463046C0470130BD
:1019E00019D022680398E368920719D51A1A002AB9
:1019F00016DD04F11909002504E0E36803981A1ABA
:101A0000AA420DDD01234A4639463046C04701301F
:101A100005F10105F1D14FF0FF3005B0BDE8F083CD
:101A20009842B8BF184605B0BDE8F083226822F09E
:101A300020022260102267E7500648BF9BB25AE797
:101A40005106A5D5B3F9003005601946A3E76168D2
:101A5000A1602D200029C3F1000384F8430002DBBC
:101A600022F004022260DFF8D8C00A22754600E0A6
:101A70000B46B3FBF2F102FB113093421CF800005D
:101A800005F8010DF4D2082A7FF454AF2368DB0770
:101A90007FF550AF626823699A423FF74BAF30231E
:101AA00005F8013C013D45E7002BDFD19CF80030F3
:101AB00084F8423004F1420539E703686268191D71
:101AC00001601D680021284600F062FD002832D028
:101AD000401B60602061002384F8433070E7226877
:101AE000036812F0800F03F104051AD01B6805602B
:101AF0006F290CBF08220A22DFF844C004E7012343
:101B000084F84210236104F14205E4E703681A688F
:101B1000191D0123016004F1420584F8422023616C
:101B2000D9E712F0400F0DBF1B6805601B880560E8
:101B3000DEE7198041E76068CCE700BFA0790008C4
:101B40008C79000838B5074C002305460846236009
:101B500005F052FC431C00D038BD2368002BFBD09D
:101B60002B6038BD08020020F8B50D461446064625
:101B700008B1836943B3254B9C422AD0244B9C4235
:101B800029D0244B9C4208BFF468A389A269A260B3
:101B90001A0722D5236903B322686169D31AEDB20B
:101BA00099422F4629DD0133A168501C0139A160FB
:101BB0002060157062699A4216D0A389DB0701D5AF
:101BC0000A2D11D03846F8BD00F076FA0F4B9C4232
:101BD000D4D17468D9E7B468D7E72146304600F01D
:101BE00023F838B92369D7E72146304600F03AF99F
:101BF0000028E7D04FF0FF37E4E72146304600F0F9
:101C000031F90028F6D122680123CDE7B878000821
:101C10009878000878780008024B0A460146186850
:101C2000FFF7A2BF000000203B4B70B51D680646C1
:101C30000C460DB1AB69DBB1384B9C421ED0384B22
:101C40009C424AD0374B9C4208BFEC68B4F90C2048
:101C500093B2190718D5206908B313F001022CD0EC
:101C6000636900225B42A361A26060B3002070BD83
:101C7000284600F021FA294B9C42E0D16C68B4F967
:101C80000C2093B21907E6D4DD063CD5580726D4BC
:101C9000206942F00803A3819BB20028DDD103F440
:101CA0002072B2F5007FD8D03046214600F026FCE5
:101CB000A389206913F00102D2D1990758BF626944
:101CC000A2600028D2D1B4F90C301A06CFD543F067
:101CD0004003A3814FF0FF3070BDAC68B6E7616B85
:101CE00051B104F14403994204D03046FFF7C8F8DB
:101CF000B4F90C200023636300232069636022F0A1
:101D000024022060C5E742F04002092333604FF00F
:101D1000FF30A28170BD00BF00000020B87800082D
:101D2000987800087878000808B5062000F098FD3B
:101D3000012000F0DFFE00BF8B891A072DE9F0417A
:101D40000C46804641D44A68002A59DDE66A002ED6
:101D500053D00022D8F80050216AC8F8002013F4AC
:101D6000805251D101234046B047431C5FD0A38924
:101D7000E66A216A5F0705D56268636B801A0BB15A
:101D8000236CC01A024600234046B047461C45D18A
:101D9000D8F80030B4F90C20002B55D01D2B01D001
:101DA000162B5AD123690022C4E90032616BC8F8AE
:101DB000005011B304F14403994202D04046FFF7AA
:101DC0005FF800206063BDE8F0810E69AEB10D6878
:101DD0000E6099070CBF63690023AD1BA3600AE086
:101DE0002B463246A76A216A4046B8470028A5EB31
:101DF000000506440ADD002DF2DC0020BDE8F0817C
:101E00000A6C002AA2DCF8E7606DB3E7A38943F00F
:101E10004003A3814FF0FF30BDE8F0812269A38920
:101E2000226000226260DA04C0D56065BEE7D8F89F
:101E30000030002B9BD01D2B0CD0162B0AD0A38971
:101E400043F04003A381D9E72169C4E90013D30417
:101E5000ACD5EAE7C8F80050CFE742F04002A281D3
:101E6000CCE700BF0B6923B310B5044682B008B1BC
:101E70008369BBB1104B994212D0104B994216D0D6
:101E80000F4B994208BFE168B1F90C302BB12046E5
:101E900002B0BDE81040FFF74FBF002002B010BDF8
:101EA0006168F1E7019100F007F90199E2E7A168A3
:101EB000EAE70020704700BFB8780008987800086B
:101EC0007878000820B1054B01461868FFF7CABFB3
:101ED000034B0449186800F0B9BA00BF00000020A5
:101EE00074780008651E000800207047014900F062
:101EF000ADBA00BF651E00080020704770B54A1ECD
:101F0000682505FB02F50E4605F17401FFF70EF892
:101F1000044640B100210C30666005F16802216082
:101F2000A060FEF71FFE204670BD00BF1E4B70B5BF
:101F30001D68AB69064643B34835D5E90134013B1A
:101F400005D51EE0013B5A1C04F1680419D0B4F910
:101F50000C20002AF6D10025144B6566C4E9005513
:101F6000A560C4E90455A5612946E360082204F18F
:101F70005C00FEF7F7FDC4E90D55C4E91255204693
:101F800070BD2C682CB12546D7E7284600F010F824
:101F9000D2E704213046FFF7B1FF0446286000284D
:101FA000F1D10C233360EAE7747800080100FFFFE9
:101FB0002DE9F84F334B34491A68816290424FF053
:101FC0000003C0E91233036504BF012383610546A2
:101FD000FFF7ACFF68602846FFF7A8FFA860284617
:101FE000FFF7A4FF6E68E86000240423F3607466C2
:101FF000C6E90044B460C6E90444B461214606F170
:102000005C000822FEF7AEFDDFF888B0AF68DFF8AD
:1020100088A0DFF88890DFF888801C4BC6F83080F5
:10202000C6E9086BC6E90AA92146FB6008227C665E
:10203000C7E90044BC60C7E90444BC6107F15C0027
:10204000FEF790FDEE68124BC7F83080C7E9087BB9
:10205000C7E90AA92146F3607466C6E90044B46082
:10206000C6E90444B46106F15C000822FEF77AFD7B
:102070000123C6E9086BC6E90AA9C6F83080AB613E
:10208000BDE8F88F74780008ED1E00080900010013
:1020900012000200D1280008F92800083929000898
:1020A00059290008024B0349186800F0CFB900BF56
:1020B00074780008651E0008836903B978E77047E3
:1020C000704700BF704700BF704700BF704700BF38
:1020D000024B0349186800F093B900BF00000020CC
:1020E000E91E0008024B0349186800F089B900BFD7
:1020F00000000020F91E00089368002B00F0028108
:102100002DE9F04FB1F90C309BB20C46190783B0A2
:102110008246904635D522699AB313F00202D8F868
:1021200000603DD00027D4F828B0D4F820C0DFF8F4
:10213000CC923D464D452B463A4628BF4B4661461C
:102140005046D5B1D847002840F3D280D8F808309F
:102150001B1A07442D1AC8F80830002B00F0B7806E
:10216000D4F820C0D4F828B04D452B463A4628BFB5
:102170004B4661465046002DE4D1D6E9007508363D
:10218000D8E721465046FFF74FFD002840F0308148
:10219000B4F90C30D8F800609BB213F00202C1D140
:1021A00013F0010940F0B080A76820684D46002D6B
:1021B00054D09A0540F1BC80AF42BB4600F2E780A4
:1021C00013F4906F2FD0D4E9041707EB4707A0EB67
:1021D000010B07EBD777681C7F105844B8423A468A
:1021E00084BF07463A465B0540F1E98011465046F8
:1021F000FEF79CFE002800F0F5805A462169019008
:10220000FEF716FCA289019B22F4906242F0800244
:10221000A281A7EB0B0203EB0B0067612361206037
:10222000A2602F46AB465A46494600F001FAA26822
:102230002368D21B5B442F46A26023600025D8F898
:102240000830DB1BB944C8F80830002B3FD0B4F984
:102250000C30A76820689BB2002DAAD1D6E9009562
:102260000836A4E70BF1080353E902679B460833DD
:10227000002FF9D03A460A21304600F089F90028AB
:1022800053D00130A0EB06094B46D4E90412206874
:10229000BB4228BF3B46884203D9A5681544AB42E0
:1022A00019DC9A427DDC1346A56A216A3246504603
:1022B000A847051E1CDDB9EB05096BD00120D8F835
:1022C00008305B1B2E447F1BC8F8083013BB00206E
:1022D00003B0BDE8F08F31462A4600F0A9F9236823
:1022E0002B44236021465046FFF7BCFD0028E2D076
:1022F000B4F90C3043F040034FF0FF30A38103B03A
:10230000BDE8F08F002070473346914610461746CF
:102310004E469B46002FA5D00028B5D13A460A214B
:10232000304600F035F90028ABD17B1C9946ACE76C
:102330002369834215D36169A94212D82E4BA76A3B
:102340009D4294BF2B466FF000434A4693FBF1F346
:10235000504601FB03F3216AB847071EC8DDED1B99
:102360006DE7AF4228BF2F463A46494600F060F974
:10237000A3682268DB1B3A44A3602260002BEED1E5
:1023800021465046FFF76EFD0028E8D0B0E72F4603
:10239000AB4648E721465046FFF764FD00288ED043
:1023A000A6E71A463146019300F042F9019BA16865
:1023B0002268C91A1A44A16022601D467BE7504674
:1023C00000F0A2F9034600287FF423AF21695046AC
:1023D000FEF756FDB4F90C300C2223F08003CAF846
:1023E000002087E70C23CAF80030B4F90C3081E7ED
:1023F0004FF0FF306CE700BFFEFFFF7F00FCFF7F68
:102400002DE9F04110F148071BD088460026D7E996
:102410000154013D0FD4A389012B05F1FF3506D9E5
:10242000B4F90E300133204601D0C04706436B1C7F
:1024300004F16804EFD13F68002FE8D13046BDE8D1
:10244000F0813E463046BDE8F08100BF2DE9F843FB
:1024500010F148071FD0884606464FF00009D7E91B
:102460000154013D11D4A389012B05F1FF3508D991
:10247000B4F90E3001332146304602D0C04749EA54
:1024800000096B1C04F16804EDD13F68002FE6D110
:102490004846BDE8F883B9464846BDE8F88300BF22
:1024A00070B50C46B1F90E10002996B016461D46BF
:1024B00013DB6A4600F07CFA00280EDB019A02F476
:1024C0007042A2F50052B2FA82F252094FF48063D0
:1024D00000202A60336016B070BDA38900221B065D
:1024E0002A6004D540230020336016B070BD4FF43D
:1024F00080630020336016B070BD00BF8A899207E8
:102500000B4606D501F1470201211A60C3E90421F7
:10251000704770B582B001AB6A460C460646FFF7BD
:10252000BFFF009905463046FEF700FDB4F90C30B8
:1025300070B11649B162019A0099206043F080039E
:10254000A381C4E904018AB92B43A38102B070BD01
:102550009A05FBD423F0030304F1470243F002037E
:102560000121A3812260C4E90421EFE73046B4F9D8
:102570000E1000F031FA10B9B4F90C30E4E7A38979
:1025800023F0030343F001031BB2DDE7ED1E000857
:1025900001F0FF01102A2BDB10F0070F08D010F814
:1025A000013B013A8B422DD010F0070F42B3F6D118
:1025B000F0B441EA012141EA014122F007047FF031
:1025C00000070023F0E80256083C85EA010586EA88
:1025D000010685FA47F5A3FA87F586FA47F6A5FAC4
:1025E00087F68EB9EED1F0BC01F0FF0102F00702D0
:1025F00032B110F8013B013A83EA010313B1F8D17B
:102600000020704701387047002D06BF354603385B
:10261000073815F0010F07D1013015F4807F02BF94
:10262000013015F4C03F0130F0BC0138704700BFE5
:102630008842F0B40DD98B1883420AD9841832B17C
:10264000224613F8014D02F8014D9942F9D1F0BC30
:1026500070470F2A0ED80346541E002AF7D00134C3
:102660000C44013B11F8012B03F8012FA142F9D1D1
:10267000F0BC704740EA01039B073BD1A2F1100771
:102680003F0901F1200606EB071601F1100300F1E6
:10269000100453F8105C44F8105C53F80C5C44F8D8
:1026A0000C5C53F8085C44F8085C53F8045C44F88C
:1026B000045C1033B34204F11004EAD17B1C1B010B
:1026C00012F00C0F194402F00F05034415D0043D1D
:1026D000AD0803EB850C1C1F0E4656F8047B44F82E
:1026E000047F6445F9D10135AD002B44294402F043
:1026F0000302B1E7541E0346B1E72A46ACE700BF28
:10270000704700BF704700BF09B3F8B51446CAB19F
:1027100006460D4600F088F9A04202D32F463846FF
:10272000F8BD21463046FEF701FC07460028F6D0EA
:1027300022462946FEF77CF930462946FEF7A0FBE3
:102740003846F8BD2746FEF79BFB3846F8BD1146D4
:10275000FEF7ECBB10B580210446FEF7E7FB606492
:1027600040B1031F00227C3043F8042F8342FBD189
:10277000002010BD4FF0FF3010BD00BF436C0BB107
:1027800000207047E6E700BF1F2970B5054608D84E
:10279000436C16460C464BB153F8240043F82460B2
:1027A00070BD162202604FF0FF3070BDFFF7D2FF00
:1027B00008B96B6CF0E74FF0FF3070BD1F2938B5DA
:1027C00021D8426C05460C466AB152F8213053B10B
:1027D000012B16D0591C10D00025204642F8245059
:1027E0009847284638BD284600F070F82246014632
:1027F0002846BDE8384000F055B816230360012094
:1028000038BD002038BD162303604FF0FF3038BDBF
:102810001F2921D838B5436C05460C4683B153F8BF
:10282000242003EB84034AB1511C10D0012A0CD0A0
:10283000002520461D609047284638BD012038BD40
:10284000FFF788FF28B96B6CE9E7032038BD022049
:1028500038BD4FF0FF3038BD4FF0FF30704700BF3C
:10286000024B01461868FFF7A9BF00BF0000002017
:10287000024B0A4601461868FFF786BF0000002099
:10288000034B1868436C0BB10020704762E700BF30
:1028900000000020024B01461868FFF7B9BF00BFD7
:1028A0000000002038B50B46074C05461146184677
:1028B0000023236000F0FEF8431C00D038BD2368DD
:1028C000002BFBD02B6038BD0802002000F0DAB8E6
:1028D00010B50C46B1F90E1000F0AEF8002803DB7D
:1028E000636D0344636510BDA38923F48053A38102
:1028F00010BD00BF002070472DE9F0411646B1F928
:102900000C201F46D3050C460546B1F90E1009D41C
:1029100022F48052A2813B4632462846BDE8F0416F
:1029200000F01EB80022022300F068F8B4F90C2071
:10293000B4F90E10ECE700BF10B50C46B1F90E105B
:1029400000F05CF8A389421C0EBF23F4805343F4CB
:1029500080536065A38110BDB1F90E1000F016B868
:1029600070B50D46084C114606461A462846002307
:10297000236000F0B7F8431C00D070BD2368002B23
:10298000FBD0336070BD00BF0802002038B5074C93
:10299000002305460846236000F064F8431C00D07D
:1029A00038BD2368002BFBD02B6038BD0802002007
:1029B00038B50B46074C05461146184600232360E0
:1029C00000F058F8431C00D038BD2368002BFBD022
:1029D0002B6038BD0802002038B5074C002305469F
:1029E0000846236000F05EF8431C00D038BD236821
:1029F000002BFBD02B6038BD0802002070B50D46BF
:102A0000084C114606461A4628460023236000F06B
:102A100059F8431C00D070BD2368002BFBD03360F5
:102A200070BD00BF0802002051F8043C181F002BA5
:102A3000BCBF0B58C018704770B50D46084C114606
:102A400006461A4628460023236000F043F8431C3C
:102A500000D070BD2368002BFBD0336070BD00BF79
:102A600008020020024B58221A604FF0FF307047D6
:102A700008020020024B58221A604FF0FF307047C6
:102A800008020020024B58221A604FF0FF307047B6
:102A900008020020024B58221A604FF0FF307047A6
:102AA00008020020024B58221A600020704700BF25
:102AB00008020020024B58221A604FF0FF30704786
:102AC00008020020024B58221A604FF0FF30704776
:102AD00008020020024B58221A604FF0FF30704766
:102AE00008020020024B58221A604FF0FF30704756
:102AF00008020020FEE700BF10B59AB003F060FCAA
:102B000000F012FA044603F063FC224601A80549CE
:102B1000FEF710F901AA1021722003F0E5FA002057
:102B20001AB010BDD878000810B5044603F048FC70
:102B300022461021722003F0D7FA03F049FC00204E
:102B400010BD00BF10B59AB003F03AFC00F01CFABB
:102B5000044603F03DFC224601A80549FEF7EAF8C9
:102B600001AA1021722003F0BFFA00201AB010BD94
:102B7000D878000810B59AB003F022FC00F034FABF
:102B8000044603F025FC224601A80549FEF7D2F8C9
:102B900001AA1021722003F0A7FA00201AB010BD7C
:102BA000D878000810B59AB003F00AFC00F04CFA8F
:102BB000044603F00DFC224601A80549FEF7BAF8C9
:102BC00001AA1021722003F08FFA00201AB010BD64
:102BD000D878000810B59AB003F0F2FB00F08CFA38
:102BE000044603F0F5FB224601A80549FEF7A2F8CA
:102BF00001AA1021722003F077FA00201AB010BD4C
:102C0000D878000810B59AB003F0DAFB00F0CCFADF
:102C1000044603F0DDFB224601A80549FEF78AF8C9
:102C200001AA1021722003F05FFA00201AB010BD33
:102C3000D87800082DE9F043154D07460E460FCD14
:102C4000ADB004AC0FC40FCD0FC40FCD0FC495E8C9
:102C50000F004FF060084FF00009CDE9028984E8C9
:102C60000F0003F0ADFBF0B200213B46CDE90001BF
:102C700004AA02A914A800F0EFFA03F0A9FB14AA11
:102C80004021722003F030FA00202DB0BDE8F0831F
:102C9000987400082DE9F043154D07460E460FCDF8
:102CA000ADB004AC0FC40FCD0FC40FCD0FC495E869
:102CB0000F004FF060084FF00009CDE9028984E869
:102CC0000F0003F07DFBF0B200213B46CDE900018F
:102CD00004AA02A914A800F0D1FA03F079FB14AAFF
:102CE0004021722003F000FA00202DB0BDE8F083EF
:102CF000987400082DE9F043154D07460E460FCD98
:102D0000ADB004AC0FC40FCD0FC40FCD0FC495E808
:102D10000F004FF060084FF00009CDE9028984E808
:102D20000F0003F04DFBF0B200213B46CDE900015E
:102D300004AA02A914A800F0B3FA03F049FB14AAEC
:102D40004021722003F0D0F900202DB0BDE8F083BF
:102D500098740008402901D000207047F0B5114B4D
:102D600005460C4693E807009BB004AB03C30A2654
:102D70004A2000210027CDE902011A8003F020FB40
:102D80002A4604AB02A907A8CDE9006700F064FA5F
:102D900003F01EFB07AA2146722003F0A5F90020CC
:102DA0001BB0F0BDD8740008402901D00020704746
:102DB000F0B5114B05460C4693E807009BB004ABF9
:102DC00003C30A264A2000210027CDE902011A8008
:102DD00003F0F6FA2A4604AB02A907A8CDE900677A
:102DE00000F04CFA03F0F4FA07AA2146722003F02F
:102DF0007BF900201BB0F0BDD8740008402901D039
:102E000000207047F0B5114B05460C4693E80700CB
:102E10009BB004AB03C30A264A2000210027CDE95A
:102E200002011A8003F0CCFA2A4604AB02A907A8D3
:102E3000CDE9006700F034FA03F0CAFA07AA214688
:102E4000722003F051F900201BB0F0BDD8740008C7
:102E500008B503F013FA03F051FA03F08DFA03F00A
:102E6000F7F80020FDF788FFFDF7CCFE214A10217E
:102E7000612003F021F9204A1021622003F01CF99F
:102E80001E4A10216D2003F017F91D4A10216320FE
:102E900003F012F91B4A1021642003F00DF91A4ABD
:102EA00010216E2003F008F9184A1021652003F064
:102EB00003F9174A2021662003F0FEF8154A202165
:102EC000672003F0F9F8144A4021682003F0F4F871
:102ED000124A4021692003F0EFF8114A20216F20A7
:102EE00003F0EAF80F4A4021702003F0E5F803F000
:102EF00055F9FCE7F92A0008452B0008752B000856
:102F0000A52B0008D52B0008052C0008292B00084C
:102F1000352C0008952C0008552D0008A92D000817
:102F2000F52C0008FD2D000830B5164C0FCC9BB0D9
:102F30000AAD0FC594E80F00103485E80F000FCCE0
:102F400012AD0FC594E80F000AAC85E80F0000230E
:102F5000214602A8019302F04FFA019B1843019009
:102F600002AB12AA01E0A34209D013F8010B12F838
:102F7000011B8842F7D0019B43F0010301930198A4
:102F80001BB030BDE474000830B5164C0FCC9BB0BC
:102F90000AAD0FC594E80F00103485E80F000FCC80
:102FA00012AD0FC594E80F000AAC85E80F000023AE
:102FB000214602A8019302F0AFF8019B184301904B
:102FC00002AB12AA01E0A34209D013F8010B12F8D8
:102FD000011B8842F7D0019B43F001030193019844
:102FE0001BB030BDE474000830B5164C0FCC9BB05C
:102FF0000AAD0FC594E80F00103485E80F000FCC20
:1030000012AD0FC594E80F000AAC85E80F0000234D
:10301000214602A8019302F065F9019B1843019033
:1030200002AB12AA01E0A34209D013F8010B12F877
:10303000011B8842F7D0019B43F0010301930198E3
:103040001BB030BDE47400082DE9F043284B93E831
:103050000700BFB008AB03C34A200021CDE9060139
:103060001A802BAE0DF1AB030DF1F502002403F82D
:10307000014F9342FBD11F4D0FCD0BAF0FC70FCDAB
:103080000FC70FCD0FC795E80F00103587E80F0069
:103090000FCD1BAF0FC70FCD0FC70FCD0FC795E8D3
:1030A0000F004FF00A080BAD4FF0000987E80F0042
:1030B000059408AA2BA80295CDE9008906A902F07B
:1030C000BDFE059B034305933BA81BAB01E0864275
:1030D00009D016F8011B13F8012B9142F7D0059B7C
:1030E00043F00103059305983FB0BDE8F08300BFAE
:1030F00024750008307500082DE9F043284B93E84B
:103100000700BFB008AB03C34A200021CDE9060188
:103110001A802BAE0DF1AB030DF1F502002403F87C
:10312000014F9342FBD11F4D0FCD0BAF0FC70FCDFA
:103130000FC70FCD0FC795E80F00103587E80F00B8
:103140000FCD1BAF0FC70FCD0FC70FCD0FC795E822
:103150000F004FF00A080BAD4FF0000987E80F0091
:10316000059408AA2BA80295CDE9008906A902F0CA
:1031700009FC059B034305933BA81BAB01E086427A
:1031800009D016F8011B13F8012B9142F7D0059BCB
:1031900043F00103059305983FB0BDE8F08300BFFD
:1031A00024750008307500082DE9F043284B93E89A
:1031B0000700BFB008AB03C34A200021CDE90601D8
:1031C0001A802BAE0DF1AB030DF1F502002403F8CC
:1031D000014F9342FBD11F4D0FCD0BAF0FC70FCD4A
:1031E0000FC70FCD0FC795E80F00103587E80F0008
:1031F0000FCD1BAF0FC70FCD0FC70FCD0FC795E872
:103200000F004FF00A080BAD4FF0000987E80F00E0
:10321000059408AA2BA80295CDE9008906A902F019
:10322000DFFC059B034305933BA81BAB01E08642F3
:1032300009D016F8011B13F8012B9142F7D0059B1A
:1032400043F00103059305983FB0BDE8F08300BF4C
:10325000247500083075000830B587B0DDE90A45EF
:103260000292CDE900451A460023059302F0E6FDDF
:10327000059B18430590059807B030BD30B587B061
:10328000DDE90A450292CDE900451A46002305937F
:1032900002F078FB059B18430590059807B030BDF8
:1032A00030B587B0DDE90A450292CDE900451A46FE
:1032B0000023059302F094FC059B184305900598A4
:1032C00007B030BD2DE9F04F0C468BB016460546D1
:1032D00006920590FDF740F8336A276A4FEA1349D2
:1032E0001FFA87FC1FFA83F83F0C07FB08F109FB64
:1032F0000CF2080413041B184FEA11410CFB08F0F0
:103300004FEA124241EB02021B1809FB07F1284663
:1033100041EB02022B6400F1400305F120066A64D0
:103320000493002200233546CDE907C709964FF0E4
:10333000000E043C16461F4654F8043FCDF804E046
:103340001FFA83FC1B0C0CFB09F103FB08FA0A04AF
:103350004FEA0A4B12EB0B020CFB08FC4FEA11413F
:103360004FEA1A4A41EB0A0A12EB0C0203FB09F37B
:1033700000924AEB030ADDE900232868121843F1A2
:103380000003921943EB070045F8042B049B1AEB4A
:1033900000064EEB0E07AB42CED1059CDDF810E0E7
:1033A000D4E9102330468018394641F10001069ACD
:1033B000099E2064DDE907C70B444FF0000A4FF077
:1033C000000B6364A2F104094FF0000854465D4607
:1033D00059F8043FCDF80C801FFA83FA1B0C0AFB46
:1033E00007FB03FB0CF14FEA0B4208040AFB0CFA43
:1033F0004FEA1B4B12184FEA11414BEB010112EB44
:103400000A02029203FB07F3DDE902AB43EB010181
:1034100033681AEB030A4BF1000B1AEB040245EB7D
:103420000B0346F8042BCC1848EB0805B645CFD162
:103430000599D1E91023A41845F100052B440C642B
:103440004B640BB0BDE8F08F00230122C0E90023DC
:10345000C0E90233C0E90433C0E90633704700BF56
:103460000023C0E90033C0E90233C0E90433C0E9F6
:10347000063370470B1F04381C3153F8042F40F8F3
:10348000042F8B42F9D1704730B45242041F0439E3
:103490001C3054F8045F51F8043F6B4013406B40FC
:1034A00084422360F5D130BC704700BFC369024637
:1034B0005B0042F81C3F52F8041C03EBD17313600D
:1034C00052F8043D5B0082421360F4D1704700BFA4
:1034D0000368C1695B0830B40246036001F000452F
:1034E00000F11C04516803EBC173136052F8043FF0
:1034F0005B08A2421360F5D1C3692B43C36130BCA2
:10350000704700BF30B4021F00F11C0504390020D1
:1035100052F8043F51F8044FAA4283EA040340EAF8
:103520000300F5D130BC704710B44B1E421E1F3152
:1035300013F8014F02F8014F8B42F9D1C37F10BC41
:1035400003F07F03C37770470B1F04381C3153F817
:10355000042F40F8042F8B42F9D1704770B45242C7
:10356000051F04391C3055F8044F51F8046F84EAE4
:10357000060313405C40854283EA06032C600B601F
:10358000F1D170BC704700BF0023C0E90033C0E92F
:103590000233C0E90433C0E9063370470023012237
:1035A000C0E90023C0E90233C0E90433C0E90633AF
:1035B000704700BF2DE9F00BC769FA0F013202EB2B
:1035C000C203011F02EB430293464FF0000C0C466E
:1035D00000F1180654F8045F1BEB05084CF10009D4
:1035E000A642CB464FF0000CF4D119EB07024CF188
:1035F0000003D40F44EA430404EBC40304EB430286
:1036000090464FF0000951F8047F18EB070449F188
:1036100000058E42A8460C604FF00009F3D1C16945
:103620006A1822F00042C261BDE8F00B704700BF8B
:1036300038B5C269CB699A420C4605460DD1211FA7
:103640002B1F05F1180053F8044F51F8042F944232
:103650000CD18342F7D1012038BDFFF7ABFF2046E4
:10366000FFF7A8FFEA69E3699A42E8D0002038BD75
:103670002DE9F0438C4E894605460FCEA9B018AC13
:103680000FC496E80F00A9F10407ADF1040884E81F
:103690000F0009F11C063B46424653F8041F42F84E
:1036A000041F9E42F9D100230122CDE91023CDE968
:1036B0001233CDE91433CDE9163307AA3B4653F84C
:1036C000041F42F8041F9E42F9D169466846FDF77F
:1036D000B7F808AA10466946FCF71EFF6946684617
:1036E000FDF7AEF8FA2469466846FDF7A9F808AA7E
:1036F00069461046FCF710FF013CF4D110A908A858
:10370000FFF796FF0446F8B157F8043F48F8043F26
:10371000B742F9D100230122C5E90023C5E90233EC
:10372000C5E90433C5E90633FB2469466846FDF75D
:1037300087F86A4629462846FCF7EEFE013CF4D19C
:10374000204629B0BDE8F08318A908A8FFF770FF4C
:10375000002800F0A580012220AB1146CE46D9F802
:103760001C60DEF81C000746E6FB6167E0FB0167B2
:103770004FF0130007FB00F0D9F80070DEF800C02E
:10378000E1FB607C1F60D9F80400DEF80470E1FB07
:10379000607C5F60D9F80800DEF80870E1FB607CAF
:1037A0009F60D9F80C00DEF80C70E1FB607CDF60F4
:1037B000D9F81000DEF81070E1FB607C1F61D9F8C9
:1037C0001400DEF81470E1FB607C5F61D9F818002A
:1037D000DEF81870E1FB607C9F610CEB560CC3F8BF
:1037E0001CC020AB29469E46DE69DEF81C00074659
:1037F000E6FB6267E0FB02674FF0130007FB00F097
:103800001F68DEF800C0E2FB607C0F605868DEF8DD
:103810000470E2FB607C4F609868DEF80870E2FBA1
:10382000607C8F60D868DEF80C70E2FB607CCF6053
:103830001869DEF81070E2FB607C0F615869DEF8F1
:103840001470E2FB607C4F619869DEF81870E2FB4F
:10385000607C8F610CEB560CC1F81CC02B1F05F16E
:103860001C0153F8042F48F8042F9942F9D16946F6
:103870006846FCF7E5FFFA2669466846FCF7E0FF74
:103880006A4629462846FCF747FE013EF4D1284601
:1038900020AA2946FCF740FE204629B0BDE8F08367
:1038A0004FF0FF344CE700BFB07500082DE9F04140
:1038B000069E14460746304698460D46FCF7C0FF64
:1038C00031462046FCF7BCFF21462046FCF7B8FFF6
:1038D0002A4621464046FCF71FFE324641463846FE
:1038E000FCF71AFE39462046FCF7AAFF424621465D
:1038F0004046FCF711FE41462046FCF7A1FF214659
:103900002046FCF79DFF21462046FCF799FF214603
:103910002046FCF795FF21462046FCF791FF4246E2
:1039200021464046FCF7F8FD41462046FCF788FF5B
:10393000092521462046FCF783FF6B1E13F0FF0587
:10394000F7D1424621463046FCF7E6FD3146204697
:10395000FCF776FF132521462046FCF771FF6B1E0E
:1039600013F0FF05F7D1324621462046FCF7D4FD7F
:1039700021462046FCF764FF092521462046FCF736
:103980005FFF6B1E13F0FF05F7D14246214630461C
:10399000FCF7C2FD31462046FCF752FF3125214697
:1039A0002046FCF74DFF6B1E13F0FF05F7D13246A2
:1039B00021464046FCF7B0FD41462046FCF740FF5B
:1039C000632521462046FCF73BFF6B1E13F0FF05E5
:1039D000F7D1424621462046FCF79EFD322521467E
:1039E0002046FCF72DFF6B1E13F0FF05F7D1324682
:1039F00021462046FCF790FD052521462046FCF790
:103A00001FFF6B1E13F0FF05F7D121463A463846DB
:103A1000BDE8F041FCF780BD00B59BB012AB009350
:103A200002AA0AABFFF742FF1BB05DF804FB00BF20
:103A30002DE9F84307460E4608463946FFF71AFDBA
:103A40001148311F06F11C0E4FF000084FF000091D
:103A500051F8044F50F804CF18EB040249F1000369
:103A6000B2EB0C0463F100058E45A8460C604FEAEA
:103A7000E579EDD1EA433146384602F00102BDE86E
:103A8000F843FFF701BD00BFCC7500082DE9F048F1
:103A90001446064688B0FFF7EDFC0025221F331FB1
:103AA00006F11C0E002453F804CF52F8047F14EBE7
:103AB0000C0045F1000110EB070B41F1000C7345C0
:103AC0006446C3F800B04FEAEC75ECD13046694665
:103AD000FFF7AEFF08B0BDE8F08800BF2DE9F04861
:103AE000A4B000F11C02064617496846FFF7EAFB3E
:103AF00012A809A9154AFFF7E5FB12AC351F0DF115
:103B0000880E0020002155F804CF54F8047B10EBF8
:103B10000C0241F10003B2EB070B63F1000CA64568
:103B20006046C5F800B04FEAEC71ECD106F1200414
:103B300021463046FFF77CFF21463046FFF778FFED
:103B400024B0BDE8F08800BFF8750008D075000803
:103B500010B590B004466846FCF7FEFB6846FFF7D8
:103B6000BDFF69462046FFF785FC10B010BD00BFC1
:103B70002DE9F04188B00C4601466846FFF77AFC13
:103B8000251F04F11C0C0020ADF10404002154F8A1
:103B9000047F55F8046FC21941F10003971B63F1CC
:103BA00000086545404627604FEAE871EFD1079865
:103BB000C00F08B0BDE8F0812DE9F04FC1B0144648
:103BC000824628A8FFF756FC214630A8FFF752FC92
:103BD00020A8FFF739FC9DF8C0309DF8A0201343C2
:103BE000DD070FD428A8FFF773FC30A8FFF770FC9F
:103BF00020A8FFF75BFC9DF8A0309DF8C020134380
:103C0000DC07EFD528A918A8FFF734FC30A910A8C5
:103C1000FFF730FC6846FFF723FC08A8FFF714FC09
:103C200038A8FFF71DFC07AC0FAD38A918A8FFF79F
:103C300069FC18B997E06846FFF74AFC9DF86030C8
:103C4000D9073DD418A8FFF743FC9DF80030D807EA
:103C5000F1D5ADF1040127A84FF0000B4FF0000C97
:103C600051F8046F50F8047F1BEB06024CF100037F
:103C7000B2EB070863F100098C42CB46C1F8008023
:103C80004FEAE97CECD1D6E7214627A84FF0000B9C
:103C90004FF0000C51F8046F50F8047F1BEB060244
:103CA0004CF10003B2EB070863F100098D42CB46EB
:103CB000C1F800804FEAE97CECD108A8FFF708FCC6
:103CC0009DF84030DB0707D410A8FFF701FC9DF8F2
:103CD0002030DA07D8D4F0E710A918A8FFF748FF7A
:103CE000002847D010A918A8FFF70CFC002841D0E5
:103CF00017A8864629464FF0000B4FF0000C51F8EC
:103D0000046F50F8047F1BEB06024CF10003B2EB8A
:103D1000070863F100098E45CB46C1F800804FEAE1
:103D2000E97CECD12146ADF104004FF0000B4FF0DF
:103D3000000C51F8046F50F8047F1BEB06024CF1A5
:103D40000003B2EB070863F100098D42CB46C1F8CE
:103D500000804FEAE97CECD138A918A8FFF7D2FB24
:103D600000287FF46BAF08A95046FFF783FB41B0F2
:103D7000BDE8F08F17A928460DF17C0E4FF0000B1F
:103D80004FF0000C51F8046F50F8047F1BEB060253
:103D90004CF10003B2EB070863F100098E45CB46F6
:103DA000C1F800804FEAE97CECD1ADF10401204676
:103DB0004FF0000B4FF0000C51F8046F50F8047FE7
:103DC0001BEB06024CF10003B2EB070863F100099C
:103DD0008C42CB46C1F800804FEAE97CECD124E765
:103DE0002DE9F048194D06460F460FCD88B06C46B8
:103DF0000FC495E80F0084E80F003A463046694644
:103E0000FFF7DAFEF369002B06F11C0E1ADA331FF6
:103E1000ADF104020024002553F804CF52F8047FCA
:103E200014EB0C0045F1000110EB070B41F1000C05
:103E30009E456446C3F800B04FEAEC75ECD1F369D7
:103E4000002BE4DB08B0BDE8F08800BF2076000856
:103E50002DE9F04F00F1200691B000F140058146B8
:103E600000F1600700F18008324629466B460120C8
:103E7000D2F81CC0CC69A646ECFB60CEE4FB00CEB9
:103E80004FF013040EFB04F4D2F800E0D1F800A0C8
:103E9000E0FB64EAC3F800E05468D1F804E0E0FB1A
:103EA00064EAC3F804E09468D1F808E0E0FB64EA4F
:103EB000C3F808E0D468D1F80CE0E0FB64EAC3F88A
:103EC0000CE01469D1F810E0E0FB64EAC3F810E0FC
:103ED0005469D1F814E0E0FB64EAC3F814E0946993
:103EE000D1F818E0E0FB64EAC3F818E00AEB5C0ADA
:103EF000C3F81CA0002408AB324629462046D2F85D
:103F00001CC0D1F81CE0BCEB0E0C7EEB0E0E1CEBC3
:103F10000C0A5EEB0E0E4CF0004CC3F81CC0AEF168
:103F2000010C6FF0120E0CFB0EFCD1F800E0D2F881
:103F300000A0E0FB60ECBAEB0E0AC3F800A0D1F8D9
:103F400004E0D2F804A0E0FB60EC7AEB0E0AC3F8C0
:103F500004A0D1F808E0D2F808A0E0FB60EC7AEB0E
:103F60000E0AC3F808A0D1F80CE0D2F80CA0E0FBD0
:103F700060EC7AEB0E0AC3F80CA0D1F810E0D2F88E
:103F800010A0E0FB60EC7AEB0E0AC3F810A0D1F8A9
:103F900014E0D2F814A0E0FB60EC7AEB0E0AC3F850
:103FA00014A0D1F818E0D2F818A0E0FB60EC7AEB8E
:103FB0000E0AC3F818A0D3F81CA07AEB0C0AC3F8B9
:103FC0001CA008A8FFF7F6FA33463A4641460120FE
:103FD000D2F81CE0D1F81CC0E246EEFB60EAECFB34
:103FE00000EA4FF0130C0AFB0CFCD2F800A0D1F849
:103FF00000B0E0FB6CABC3F800A0D2F804C0D1F86D
:1040000004A0E0FB6CABC3F804A0D2F808C0D1F860
:1040100008A0E0FB6CABC3F808A0D2F80CC0D1F844
:104020000CA0E0FB6CABC3F80CA0D2F810C0D1F828
:1040300010A0E0FB6CABC3F810A0D2F814C0D1F80C
:1040400014A0E0FB6CABC3F814A0D2F818C0D1F8F0
:1040500018A0E0FB6CABC3F818A00BEB5E0BC3F829
:104060001CB02B463A4641462046D2F81CC0D1F837
:104070001CE0BCEB0E0C7EEB0E0E1CEB0C0A5EEB98
:104080000E0E4CF0004CC3F81CC0AEF1010C6FF0EA
:10409000120E0CFB0EFCD1F800E0D2F800A0E0FB01
:1040A00060ECBAEB0E0AC3F800A0D1F804E0D2F835
:1040B00004A0E0FB60EC7AEB0E0AC3F804A0D1F890
:1040C00008E0D2F808A0E0FB60EC7AEB0E0AC3F837
:1040D00008A0D1F80CE0D2F80CA0E0FB60EC7AEB81
:1040E0000E0AC3F80CA0D1F810E0D2F810A0E0FB43
:1040F00060EC7AEB0E0AC3F810A0D1F814E0D2F805
:1041000014A0E0FB60EC7AEB0E0AC3F814A0D1F81F
:1041100018E0D2F818A0E0FB60EC7AEB0E0AC3F8C6
:1041200018A0D3F81CA07AEB0C0AC3F81CA06A46AE
:1041300029463846FCF7F0F908AA31462846FCF72C
:10414000EBF90123324629463846D1F81CE0D0F875
:104150001CC0E246EEFB63EAECFB03EA4FF0130CF3
:104160000AFB0CFCD1F800A0D0F800B0E3FB6CAB6C
:10417000C2F800A0D1F804C0D0F804A0E3FB6CABF7
:10418000C2F804A0D1F808C0D0F808A0E3FB6CABDB
:10419000C2F808A0D1F80CC0D0F80CA0E3FB6CABBF
:1041A000C2F80CA0D1F810C0D0F810A0E3FB6CABA3
:1041B000C2F810A0D1F814C0D0F814A0E3FB6CAB87
:1041C000C2F814A0D1F818C0D0F818A0E3FB6CAB6B
:1041D000C2F818A00BEB5E0BC2F81CB043463A467F
:1041E00029462046D2F81CC0D1F81CE0BCEB0E0CCE
:1041F0007EEB0E0E1CEB0C0A5EEB0E0E4CF0004C30
:10420000C3F81CC0AEF1010C6FF0120E0CFB0EFCDB
:10421000D1F800E0D2F800A0E0FB60ECBAEB0E0AA7
:10422000C3F800A0D1F804E0D2F804A0E0FB60ECF1
:104230007AEB0E0AC3F804A0D1F808E0D2F808A07F
:10424000E0FB60EC7AEB0E0AC3F808A0D1F80CE0B2
:10425000D2F80CA0E0FB60EC7AEB0E0AC3F80CA0DD
:10426000D1F810E0D2F810A0E0FB60EC7AEB0E0A77
:10427000C3F810A0D1F814E0D2F814A0E0FB60EC71
:104280007AEB0E0AC3F814A0D1F818E0D2F818A0FF
:10429000E0FB60EC7AEB0E0AC3F818A0D3F81CA080
:1042A0007AEB0C0AC3F81CA038463146FCF7C8FA72
:1042B00041463046FCF7C4FA4A4631464046FCF7D0
:1042C0002BF969463046FCF7BBFA08A96846FCF7AB
:1042D000B7FA2B4632466946D069CF69C01BBF4149
:1042E00010EB000C7F4140F00040D861A7F10100C5
:1042F0006FF0120700FB07F00F68D2F800C0E4FB74
:104300006470BCEB070CC3F800C04F68D2F804C05F
:10431000E4FB64707CEB070CC3F804C08F68D2F830
:1043200008C0E4FB64707CEB070CC3F808C0CF68DE
:10433000D2F80CC0E4FB64707CEB070CC3F80CC033
:104340000F69D2F810C0E4FB64707CEB070CC3F873
:1043500010C04F69D2F814C0E4FB64707CEB070C0A
:10436000C3F814C08F69D2F818C0E4FB64707CEB0A
:10437000070CC3F818C0D3F81CC07CEB000CC3F8C2
:104380001CC02846FFF716F9324669463046FCF74E
:10439000C3F8224A6B4608A92846DC69C76902EBC4
:1043A000020C2646ECFB67464FF0130707FB06F6A8
:1043B000D0F800C01F68E2FB6C760F60D0F804C034
:1043C0005F68E2FB6C764F60D0F808C09F68E2FB44
:1043D0006C768F60D0F80CC0DF68E2FB6C76CF6043
:1043E000D0F810C01F69E2FB6C760F61D0F814C0E2
:1043F0005F69E2FB6C764F61D0F818C09F69E2FB01
:104400006C768F6106EB5404CC6108A92A462846D5
:10441000FCF782F811B0BDE8F08F00BF42DB01006D
:104420002DE9F047A0B00E46804629996846012440
:1044300099461546FCF770F83146684608AA2346A7
:10444000D1F81CC0C769BE46ECFB63CEE7FB03CEC8
:104450004FF013070EFB07F7D1F800E0D0F800A0EB
:10446000E3FB67EAC2F800E04F68D0F804E0E3FB42
:1044700067EAC2F804E08F68D0F808E0E3FB67EA77
:10448000C2F808E0CF68D0F80CE0E3FB67EAC2F8B6
:104490000CE00F69D0F810E0E3FB67EAC2F810E027
:1044A0004F69D0F814E0E3FB67EAC2F814E08F69C3
:1044B000D0F818E0E3FB67EAC2F818E00AEB5C0A00
:1044C000C2F81CA0002710AB324669463846D2F825
:1044D0001CC0D1F81CE0BCEB0E0C7EEB0E0E1CEBEE
:1044E0000C0A5EEB0E0E4CF0004CC3F81CC0AEF193
:1044F000010C6FF0120E0CFB0EFCD1F800E0D2F8AC
:1045000000A0E0FB60ECBAEB0E0AC3F800A0D1F803
:1045100004E0D2F804A0E0FB60EC7AEB0E0AC3F8EA
:1045200004A0D1F808E0D2F808A0E0FB60EC7AEB38
:104530000E0AC3F808A0D1F80CE0D2F80CA0E0FBFA
:1045400060EC7AEB0E0AC3F80CA0D1F810E0D2F8B8
:1045500010A0E0FB60EC7AEB0E0AC3F810A0D1F8D3
:1045600014E0D2F814A0E0FB60EC7AEB0E0AC3F87A
:1045700014A0D1F818E0D2F818A0E0FB60EC7AEBB8
:104580000E0AC3F818A0D3F81CA07AEB0C0AC3F8E3
:104590001CA010A90846FCF753F910A94A46084682
:1045A000FBF7BAFFDC4B6A4621469A46D3F81CC09B
:1045B000DAF81C008646ECFB61CEE0FB01CE4FF042
:1045C00013000EFB00F0D3F800E0DAF80090E1FBF6
:1045D00060E9C2F800E05868DAF804E0E1FB60E95D
:1045E000C2F804E09868DAF808E0E1FB60E9C2F894
:1045F00008E0D868DAF80CE0E1FB60E9C2F80CE00A
:104600001869DAF810E0E1FB60E9C2F810E05869D7
:10461000DAF814E0E1FB60E9C2F814E09869DAF82E
:1046200018E0E1FB60E9C2F818E009EB5C09C2F8A8
:104630001C902A4669466846FBF76EFF08AB6A463F
:1046400021469A46DAF81CC0D0698646ECFB61CE5A
:10465000E0FB01CE4FF013000EFB00F0DAF800E0B3
:10466000D2F80090E1FB60E9C3F800E0DAF804005A
:10467000D2F804E0E1FB60E9C3F804E0DAF80800EE
:10468000D2F808E0E1FB60E9C3F808E0DAF80C00D2
:10469000D2F80CE0E1FB60E9C3F80CE0DAF81000B6
:1046A000D2F810E0E1FB60E9C3F810E0DAF814009A
:1046B000D2F814E0E1FB60E9C3F814E0DAF818007E
:1046C000D2F818E0E1FB60E9C3F818E009EB5C09F7
:1046D000C3F81C903246299918A8FBF71DFF18ABA8
:1046E0002A4621469A46DAF81CC0D0698646ECFB79
:1046F00061CEE0FB01CE4FF013000EFB00F0DAF8C4
:1047000000E0D2F80090E1FB60E9C3F800E0DAF8DD
:104710000400D2F804E0E1FB60E9C3F804E0DAF851
:104720000800D2F808E0E1FB60E9C3F808E0DAF835
:104730000C00D2F80CE0E1FB60E9C3F80CE0DAF819
:104740001000D2F810E0E1FB60E9C3F810E0DAF8FD
:104750001400D2F814E0E1FB60E9C3F814E0DAF8E1
:104760001800D2F818E0E1FB60E9C3F818E009EBA3
:104770005C09C3F81C9008A918AA0846FBF7CCFEF0
:104780002A4669466846FBF7C7FE08AB6A463946C3
:104790009946D9F81C00D2F81CC0B0EB0C007CEB99
:1047A0000C0C10EB000E5CEB0C0C40F00040D861E0
:1047B000ACF101006FF0120C00FB0CF0D2F800C05D
:1047C000D9F800E0E1FB61C0BEEB0C0EC3F800E0DD
:1047D000D2F804C0D9F804E0E1FB61C07EEB0C0E16
:1047E000C3F804E0D2F808C0D9F808E0E1FB61C0E2
:1047F0007EEB0C0EC3F808E0D2F80CC0D9F80CE040
:10480000E1FB61C07EEB0C0EC3F80CE0D2F810C0E7
:10481000D9F810E0E1FB61C07EEB0C0EC3F810E0AC
:10482000D2F814C0D9F814E0E1FB61C07EEB0C0EA5
:10483000C3F814E0D2F818C0D9F818E0E1FB61C061
:104840007EEB0C0EC3F818E0D3F81CE07EEB000EF4
:10485000C3F81CE008A9289A0846FBF75DFE08ABE0
:1048600010AAD969D069091A804111EB010C4041A5
:1048700041F00041C8F81C10A0F101016FF01200D6
:1048800001FB00F11068D3F800C0E7FB6701BCEB47
:10489000000CC8F800C05068D3F804C0E7FB6701FB
:1048A0007CEB000CC8F804C09068D3F808C0E7FBA4
:1048B00067017CEB000CC8F808C0D068D3F80CC0C6
:1048C000E7FB67017CEB000CC8F80CC01069D3F85B
:1048D00010C0E7FB67017CEB000CC8F810C0506902
:1048E000D3F814C0E7FB67017CEB000CC8F814C0D8
:1048F0009069D3F818C0E7FB67017CEB000CC8F89F
:1049000018C0D8F81CC07CEB010CC8F81CC02A9B4E
:104910006A469E4602E000BF40760008D869DEF88D
:104920001C100F46E0FB6407E1FB04074FF0130186
:1049300007FB01F11F68DEF800C0E4FB617C176033
:104940005968DEF80470E4FB617C57609968DEF812
:104950000870E4FB617C9760D968DEF80C70E4FBBA
:10496000617CD7601969DEF81070E4FB617C176127
:104970005969DEF81470E4FB617C57619969DEF8CF
:104980001870E4FB617C97610CEB500CC2F81CC002
:104990002A4669466846FBF7BFFD289A694668467D
:1049A000FBF7BAFD324669463046FBF7B5FD2A46AD
:1049B00069462846FBF7B0FD20B0BDE8F08700BF90
:1049C0002DE9F04190B00C46054608A8FBF738FFEA
:1049D000224608A96846FBF79FFD08A90846494AF0
:1049E000FBF79AFD01216B4608AA08469846D8F8BD
:1049F0001C70D669B446E7FB607CE6FB007C4FF098
:104A000013060CFB06F6D8F800C0D2F800E0E0FB75
:104A100066CEC3F800C0D8F80460D2F804C0E0FB4A
:104A200066CEC3F804C0D8F80860D2F808C0E0FB2E
:104A300066CEC3F808C0D8F80C60D2F80CC0E0FB12
:104A400066CEC3F80CC0D8F81060D2F810C0E0FBF6
:104A500066CEC3F810C0D8F81460D2F814C0E0FBDA
:104A600066CEC3F814C0D8F81860D2F818C0E0FBBE
:104A700066CEC3F818C00EEB570EC3F81CE06B46A9
:104A800022469C46DCF81C40D0690646E4FB6146A1
:104A9000E0FB01464FF0130006FB00F0DCF800607D
:104AA0001768E1FB60671E60DCF804005668E1FBF4
:104AB00060675E60DCF808009668E1FB60679E60F6
:104AC000DCF80C00D668E1FB6067DE60DCF8100003
:104AD0001669E1FB60671E61DCF814005669E1FBB2
:104AE00060675E61DCF818009669E1FB60679E61B3
:104AF00007EB5407DF6169462846FEF7B9FD10B0A1
:104B0000BDE8F08140760008F0B583B00546144654
:104B100068460026082200230F46CDE9006600F013
:104B20007FFCDDE900230120A04022EA00027A4058
:104B300062FA04F4204605F1600205F12001FBF75A
:104B40006BFB204605F1800205F14001019BFBF75C
:104B500063FB03B0F0BD00BF2DE9F043B1B01446D4
:104B600007460D461E460122214638986B46D1F86D
:104B70001CE0D0F81CC0E046EEFB62E8ECFB02E86B
:104B80004FF0130C08FB0CFCD1F80080D0F800901B
:104B9000E2FB6C89C3F80080D1F804C0D0F804802F
:104BA000E2FB6C89C3F80480D1F808C0D0F8088013
:104BB000E2FB6C89C3F80880D1F80CC0D0F80C80F7
:104BC000E2FB6C89C3F80C80D1F810C0D0F81080DB
:104BD000E2FB6C89C3F81080D1F814C0D0F81480BF
:104BE000E2FB6C89C3F81480D1F818C0D0F81880A3
:104BF000E2FB6C89C3F8188009EB5E09C3F81C90CE
:104C00006A4608A83146FBF787FC08A910A8FEF7FA
:104C100003FF10AA18A82146FBF77EFC6A4618A9D4
:104C20003846FBF779FC39463846374AFBF774FCBF
:104C30003846FEF7BFFC0020224620AB3899D469E5
:104C4000CF69E41BBF4114EB040C7F4144F00044E6
:104C5000DC61A7F101046FF0120704FB07F40F6891
:104C6000D2F800C0E0FB6074BCEB070CC3F800C0D6
:104C70004F68D2F804C0E0FB60747CEB070CC3F80B
:104C800004C08F68D2F808C0E0FB60747CEB070CAE
:104C9000C3F808C0CF68D2F80CC0E0FB60747CEBAE
:104CA000070CC3F80CC00F69D2F810C0E0FB6074A9
:104CB0007CEB070CC3F810C04F69D2F814C0E0FBBE
:104CC00060747CEB070CC3F814C08F69D2F818C06D
:104CD000E0FB60747CEB070CC3F818C0D3F81CC071
:104CE0007CEB040CC3F81CC0324610A928A8FBF7C3
:104CF00013FC28AA20A92846FBF70EFC2846FEF73D
:104D000059FC31B0BDE8F083607600082DE9F0472A
:104D1000ADF5387D88464FF0FF340021174600235B
:104D20002022AEAD049406460C46059100F078FBB7
:104D300008F1FF3128460DF5367C11F8013F00F8E7
:104D4000013B05AA2346136803F109031360844558
:104D5000F3D139467EA8FEF7E7FB96A8FEF71EFCC6
:104D60009EA8FEF711FC86A87EA9FEF7EDFB8EA893
:104D7000FEF714FC05AB1C6804F109041C6006A8CE
:104D80007EA9FFF71DFE08B35EAC4FF0FF3186A889
:104D900020220023049100F043FB0DF29713721EB2
:104DA0000DF2B71013F8011F02F8011F9842F9D154
:104DB000F37F2278049802F0010203F07F0343EAB4
:104DC000C213F3770DF5387DBDE8F08706A8FEF72E
:104DD000F1FBA6A8FEF7D8FB08220023A6A800F046
:104DE0001FFBDDE9A6231343F6D000236EA8402263
:104DF00000F016FB6EA926A8FBF796FC26AAA6A92A
:104E000016A8FEF7A5FE16A90846FEF7E9FF26AA92
:104E100016A91EA8FEF79CFE1EAA29462846FEF7E4
:104E200097FE002305AA136803F1A3031360402231
:104E300000236EA800F0F4FA6EA99EA8FBF774FC9C
:104E40009EA8FEF7B7FB9DF897329EA963F07F03FB
:104E50007EAA96A88DF89732FBF75EFB86A8FEF730
:104E60009DFB8EA8FEF790FBB5ACFE23B6932146C2
:104E70000A6851F8043D1B0C43EA024383EA4303EA
:104E800082EA42021B0C120C8D428B80CA80EFD149
:104E9000AE99202281EA41012EA80023AE9100F0B4
:104EA000BFFA9DF8D73036AD03F07F0328462EA910
:104EB0008DF8D730FEF7DEFAEB695B00EB6135A8C1
:104EC0003DAA52F8047C50F8041943EAD7731360E2
:104ED000276852F8043D79405B009542136044F81E
:104EE0000419EED12E9AAE9B4FF000085340AE93BA
:104EF00005AA4346136803F1A30313601F22E9695F
:104F00007EA8FFF701FEB69A424523DBC2F34714A1
:104F1000B8AB03EB840302F01F073A467EA853F8B0
:104F2000281CFFF7F1FDB69A002A7EA80EDDFEF7D9
:104F30008FFF434605AA136803F1090313603A463D
:104F400055F824107EA8FFF7DFFDB69A013A002A33
:104F5000B692DBDA06AB02937EAB01939EAB009375
:104F60000EA896AB8EAA86A9FFF75AFA8EA97EAB39
:104F7000009396AA9EAB0846FEF798FC86A98EAAD7
:104F80000846FBF7C9FA86A8FEF714FB0EA98EAAFD
:104F90000846FBF7C1FA0DF1F80886A97EA8FEF7CE
:104FA000D3FA0DF58C7940467EA9FEF7CDFA0EA90D
:104FB0004846FEF7C9FA402200236EA800F030FAF6
:104FC0006EA99EA8FBF7B0FB9EA8FEF7F3FA9DF82A
:104FD00097327EAA63F07F039EA996A88DF8973238
:104FE000FBF79AFA86A8FEF7D9FA8EA8FEF7CCFA54
:104FF000DDE9A630A89CC10FDA0F41EA440142EA7C
:1050000040026140424083EA43034EA84024CDE978
:10501000A721A693B694FEF7B7FA4EA80C22002358
:1050200000F0FEF99DF83A3156AD03F001034EA9A8
:1050300028468DF83A31FEF71DFAD5E90037AA68FF
:105040005099A898FC0F44EA4202DDE94E4C4840D2
:10505000AA60D90FA79A41EA4701696082EA0C0168
:10506000A69A5B00624000272B60A692CDE9A710AC
:105070003B4605AA136803F1A30313600122A96844
:105080007EA8FFF741FDB69ABA4223DBC2F347146C
:10509000B8AB03EB840302F01F0A52467EA853F814
:1050A000481CFFF731FDB69A002A7EA80EDDFEF7F8
:1050B000CFFE3B4605AA136803F10903136052466D
:1050C00055F824107EA8FFF71FFDB69A013A002A72
:1050D000B692DBDA9EAB00938EAA96ABCDE901893E
:1050E00086A90EA80025FFF79BF92B4605AA136891
:1050F00003F1A30313608EAB5EAC009386AA0EABE4
:10510000204666A9FFF728FD059A40F6E3639A4218
:105110007FF43BAE049540E6014AFFF7F7BD00BFC0
:10512000C076000870B5F0B00C46FF2500210023C2
:10513000164620228DF813500591054600F070F9AF
:10514000611E66AB6EA811F8012F03F8012B98427F
:10515000F9D1314636A8FEF7E7F956A8FEF71EFA50
:1051600036A94EA8FEF7F0F93EA8FEF717FA46A8B2
:10517000FEF70AFA06A836A9FFF722FC00B316AC20
:10518000FF213EA8202200238DF8131000F048F9DB
:105190000DF177036A1E0DF1970013F8011F02F855
:1051A000011F9842F9D1EB7F22789DF8130002F09D
:1051B000010203F07F0343EAC213EB7770B070BDC6
:1051C000034605AA136803F1A303136005AB18682F
:1051D00000F1A30018604022002326A800F020F967
:1051E00026A956A8FBF7A0FA56A8FEF7E3F99DF802
:1051F000773156A963F07F0336AA4EA88DF8773130
:10520000FBF78AF93EA8FEF7C9F946A8FEF7BCF9F4
:10521000FE236E936DA966A80A6851F8043D1B0C25
:1052200043EA024383EA430382EA42021B0C120C64
:1052300088428B80CA80EFD1669B002483EA4303B7
:10524000669305AA2346136803F1A30313606E9ABD
:10525000A2421CDBC2F3471370A901EB830302F0E7
:105260001F0253F8281C36A8FFF74EFC6E9A002A3E
:1052700009DD36A8FEF7ECFD234605AA136803F105
:10528000090313606E9A013A002A6E92E2DA06ABC5
:10529000029336AB019356AB009346AA4EAB0EA8D1
:1052A0003EA90026FFF7BCF8334605AA136803F1B0
:1052B000A303136016AC46AB3EAA1EA9009320467A
:1052C0000EABFFF749FC2046FEF774F91EA8FEF767
:1052D00071F9059A40F67A339A427FF451AF8DF80E
:1052E000136055E7014AFFF71DBF00BFC0760008F5
:1052F00070B5DEB00446013954AB5CAD11F8010F56
:1053000003F8010B9D42F9D1114624A8FEF70CF9D0
:1053100044A8FEF743F924A93CA8FEF715F92CA8E8
:10532000FEF73CF934A8FEF72FF924A904A8FFF7EB
:1053300047FB054600285BD1FE235C930646C3F37A
:10534000C7025EA90A4403F0070312F8281C41FAB9
:1053500003F303F001035E4032463CA92CA88DF80C
:105360007431FEF7FBF8324644A934A8FEF7F6F88C
:1053700024A8FEF76DFD5C9B9DF87461013B002B3A
:105380005C93DCDA3CA932462CA8FEF7E7F83246FB
:1053900044A934A8FEF7E2F804AB029324AB0193CE
:1053A00044AB00930CA83CAB34AA2CA9FFF738F807
:1053B00034AA0CAB009214A82CAA1CA9FFF7CCFBB2
:1053C0000DF16F03621E0DF18F0013F8011F02F83B
:1053D000011F9842F9D1E37F9DF8502003F07F032D
:1053E00002F0010243EAC2132846E3775EB070BDC3
:1053F000012528465EB070BD014AFFF779BF00BFA6
:10540000C076000810B5FBF72FFC0446FBF72CFC18
:10541000C00280EAC454FBF727FC604010BD00BF07
:10542000002B08BF042A2DE9F84390469946074609
:1054300018D314461D460646FFF7E4FF043C45F129
:10544000FF35002D08BF042C46F8040BF4D2B8F148
:10545000040323F00303043308F0030290461F44BF
:105460004FF0000958EA090301D1BDE8F883FFF7BE
:10547000C9FFB84407F8010BB8454FEA1020F9D12D
:10548000BDE8F8836AB110B4024410F8013B11F88A
:10549000014B904283EA040300F8013CF5D110BCB3
:1054A000704770472DE9F04F8DB0A0F1080C00F166
:1054B00020080DF1080E5CF8087FDCF80430019339
:1054C000DCF82830DCF8A02087EA0309DCE9146561
:1054D000DCF82C30019FDCE91E415F4089EA0606BA
:1054E0007D40DCF8A4307440694062405940E0459A
:1054F000CEE900210EF1080EDDD13B4E00F1C804CB
:1055000000252A1D0135A6FB05139B08A6FB027189
:1055100003EB83030CAFEB1A890807EBC30301EB22
:105520008101521A53E90AE107EBC20353E90A2346
:105530004F004FEA4E0C47EADE774CEAD17C5F40E1
:105540008CEA020CA4F1C803D3E9001281EA0C0131
:105550007A40C3E9001228339C42F5D1052D04F1AD
:105560000804CED1214FD0E9024107F1600E07F1C6
:105570005C084FF00A0C012305E01C465EF804CFDE
:1055800057F8043F11465A4202F03F02A3F12009A6
:1055900004FA09F9C2F1200B01FA03F624FA02F524
:1055A000A2F1200A46EA090601FA0BFBC3F1200921
:1055B00024FA09F945EA0B0521FA0AFA04FA03F379
:1055C00021FA02F200EBCC0445EA0A0546EA090694
:1055D0001D431643B845D4E9003240F83C5066609C
:1055E000CBD10DB0BDE8F08FCDCCCCCCE0760008AF
:1055F0002DE9F04F984687B00346C83304900391D5
:1056000005939346DDF810E0DDF80CC075460FCD2C
:105610005C460FC40FCD0FC495E8030084E8030077
:1056200065460FCD44460FC40FCD0FC495E8030067
:1056300084E8030000233749581C0233A1FB0042D1
:10564000A1FB03419208890801EB810102EB820270
:10565000821A5B1ADF005BF8321001904FEAC20A2F
:105660005BF833000BEB0A090BEB070520EA01019D
:10567000DEF80000D9F804606C684140DEF80400F0
:105680004EF8081B24EA0604444047444EF8044CF4
:10569000D9F804600291796858F833000E405BF83D
:1056A000321008400299664041404EE9021658F80F
:1056B000334058F832007968DCF80460C24424EAC8
:1056C0000000DCF80040DAF8047060404CF8080B89
:1056D00021EA07014E404CF8046C5BF8333058F86F
:1056E0003240DAF804106D681C40019B294060408C
:1056F0004E40052B4CE902069DD1039A049B2832AB
:105700000392059A2833934204937FF47BAF07B04A
:10571000BDE8F08FCDCCCCCCF0B5C5B004460E467C
:10572000C0220F4914A8FBF783F912AD42AF2046FF
:10573000FFF7B8FE3046FFF7B5FE0AAB6A463146C2
:105740002046FFF755FF55F8080F2268636869681F
:1057500042404B40BD42C4E90023E8D145B0F0BD12
:10576000A07700082DE9F04F83B0DDE90E454FF03A
:10577000000916464D45904608BFB4429DF84020AA
:105780000C9F019282468B4620D3BA4600918346F5
:105790001F46394632465846FFF774FE5146324698
:1057A0000098FFF76FFE00995846FFF7B5FFB4EB7E
:1057B000080465EB09054D4508BF44453744B2442C
:1057C000E7D23B465746DA46DDF800B01946224696
:1057D0005046FFF757FE0AEB040201991378013E89
:1057E000594011701AF80630394683F08003584644
:1057F00022460AF8063003B0BDE8F04FFFF742BE7C
:105800002DE9F041069D164680460F461046194682
:105810001C46FFF781FF2A4631464046FBF708F950
:105820002A4621463846BDE8F041FBF701B900BFE2
:105830002DE9F047ADF52E7D9046DDE9B867C82229
:1058400082460D464AA800219946B79CFBF78AF983
:10585000C82200217CA8FBF785F91F220492CDE91C
:1058600002670094B69B7CA94AA88822FFF77AFFBA
:10587000B9F1000F08BFB8F1880F15D38824294665
:10588000504600947CAB4AAAFFF7BAFFB8F18808EB
:1058900049F1FF39B9F1000F08BFB8F1880F05F1E0
:1058A00088050AF1880AEAD288247CAB4AAA28A98A
:1058B00006A80094FFF7A4FF424606A95046FBF74E
:1058C000B7F8424628A92846FBF7B2F80DF52E7D19
:1058D000BDE8F0876AB110B4024410F8013B11F83A
:1058E000014B904283EA040300F8013CF5D110BC5F
:1058F000704770472DE9F041A4B0DDE92A5604460F
:10590000174698462846FBF793F843463A463046F2
:10591000FFF786FD3A4631462846FFF7DBFFCDE923
:105920000278CDE9005614A904A840220023FFF70D
:105930007FFFDDE90423DDE90617DDE908650A9844
:10594000226063600B9A0C9BE76026610E9F0F9E9E
:105950006561A061109D1198E2612362129A139B08
:10596000A1600D996162C4E90C50C4E90E2314A929
:10597000C4E90A7620464022FFF7ACFF24B0BDE818
:10598000F08100BF2DE9F04FADF65C6D0DF5BF67FE
:10599000DDF8885EDDF8808E019776AB9346009344
:1059A0002022002304468A4666A82946DDF8849E04
:1059B000FFF7A0FF594642460DF65820FBF738F88E
:1059C000DDE96E01CDF8380A7198CDF83C1ACDF8B2
:1059D000440A72997498709E0390CDF8481A75998C
:1059E000049118F120020399CDF8406A76AB739EBA
:1059F0000093CDF84C6A49F1000336A8CDF8501A4F
:105A0000049E01970DF63821CDF8546AFFF772FF16
:105A100036A8FEF763F836A90DF61820FFF77CFBD1
:105A2000002840F0D98040220023834646A8FFF793
:105A3000F7FC0023402256A8FFF7F2FC46A906A86F
:105A4000FAF772FE56A90EA8FAF76EFE06A90EAA7C
:105A500016A8FEF77DF80023402246A8FFF7E0FCD9
:105A600046A91EA8FAF760FE1EAA16A926A8FEF7E8
:105A70006FF826A92EA8FEF7B3F91EAA2EA916A81C
:105A8000FEF766F86899209169992191DDE966230E
:105A90006A996D9822916B9923916C991F93249127
:105AA000C0F3056322F0070143F040031E922590E6
:105AB00006AA8DF8781026A81EA98DF89730FEF753
:105AC00047F876A901970091D5E90801D5E90A6759
:105AD000CDF83C1A296B0391696B0491CDF8380A13
